{
  "contractName": "MilkSupplyChain",
  "abi": [
    {
      "anonymous": false,
      "inputs": [
        {
          "indexed": false,
          "internalType": "uint256",
          "name": "id",
          "type": "uint256"
        },
        {
          "indexed": false,
          "internalType": "string",
          "name": "batchCode",
          "type": "string"
        },
        {
          "indexed": false,
          "internalType": "string",
          "name": "farmName",
          "type": "string"
        }
      ],
      "name": "MilkBatchCreated",
      "type": "event"
    },
    {
      "anonymous": false,
      "inputs": [
        {
          "indexed": false,
          "internalType": "uint256",
          "name": "id",
          "type": "uint256"
        },
        {
          "indexed": false,
          "internalType": "uint256",
          "name": "batchId",
          "type": "uint256"
        },
        {
          "indexed": false,
          "internalType": "string",
          "name": "serialNumber",
          "type": "string"
        }
      ],
      "name": "MilkBoxCreated",
      "type": "event"
    },
    {
      "anonymous": false,
      "inputs": [
        {
          "indexed": false,
          "internalType": "uint256",
          "name": "id",
          "type": "uint256"
        },
        {
          "indexed": false,
          "internalType": "string",
          "name": "newStatus",
          "type": "string"
        }
      ],
      "name": "StatusUpdated",
      "type": "event"
    },
    {
      "inputs": [],
      "name": "milkBatchCount",
      "outputs": [
        {
          "internalType": "uint256",
          "name": "",
          "type": "uint256"
        }
      ],
      "stateMutability": "view",
      "type": "function",
      "constant": true
    },
    {
      "inputs": [
        {
          "internalType": "uint256",
          "name": "",
          "type": "uint256"
        }
      ],
      "name": "milkBatches",
      "outputs": [
        {
          "internalType": "uint256",
          "name": "id",
          "type": "uint256"
        },
        {
          "internalType": "string",
          "name": "batchCode",
          "type": "string"
        },
        {
          "internalType": "string",
          "name": "farmName",
          "type": "string"
        },
        {
          "internalType": "string",
          "name": "status",
          "type": "string"
        },
        {
          "internalType": "address",
          "name": "owner",
          "type": "address"
        }
      ],
      "stateMutability": "view",
      "type": "function",
      "constant": true
    },
    {
      "inputs": [],
      "name": "milkBoxCount",
      "outputs": [
        {
          "internalType": "uint256",
          "name": "",
          "type": "uint256"
        }
      ],
      "stateMutability": "view",
      "type": "function",
      "constant": true
    },
    {
      "inputs": [
        {
          "internalType": "uint256",
          "name": "",
          "type": "uint256"
        }
      ],
      "name": "milkBoxes",
      "outputs": [
        {
          "internalType": "uint256",
          "name": "id",
          "type": "uint256"
        },
        {
          "internalType": "uint256",
          "name": "batchId",
          "type": "uint256"
        },
        {
          "internalType": "string",
          "name": "serialNumber",
          "type": "string"
        },
        {
          "internalType": "string",
          "name": "status",
          "type": "string"
        },
        {
          "internalType": "address",
          "name": "owner",
          "type": "address"
        }
      ],
      "stateMutability": "view",
      "type": "function",
      "constant": true
    },
    {
      "inputs": [
        {
          "internalType": "string",
          "name": "_batchCode",
          "type": "string"
        },
        {
          "internalType": "string",
          "name": "_farmName",
          "type": "string"
        }
      ],
      "name": "createMilkBatch",
      "outputs": [],
      "stateMutability": "nonpayable",
      "type": "function"
    },
    {
      "inputs": [
        {
          "internalType": "uint256",
          "name": "_batchId",
          "type": "uint256"
        },
        {
          "internalType": "string",
          "name": "_serialNumber",
          "type": "string"
        }
      ],
      "name": "createMilkBox",
      "outputs": [],
      "stateMutability": "nonpayable",
      "type": "function"
    },
    {
      "inputs": [
        {
          "internalType": "uint256",
          "name": "_id",
          "type": "uint256"
        },
        {
          "internalType": "string",
          "name": "_newStatus",
          "type": "string"
        }
      ],
      "name": "updateMilkBatchStatus",
      "outputs": [],
      "stateMutability": "nonpayable",
      "type": "function"
    },
    {
      "inputs": [
        {
          "internalType": "uint256",
          "name": "_id",
          "type": "uint256"
        },
        {
          "internalType": "string",
          "name": "_newStatus",
          "type": "string"
        }
      ],
      "name": "updateMilkBoxStatus",
      "outputs": [],
      "stateMutability": "nonpayable",
      "type": "function"
    }
  ],
  "bytecode": "0x608060405234801561001057600080fd5b506111b4806100206000396000f3fe608060405234801561001057600080fd5b50600436106100885760003560e01c80635f8f6f5d1161005b5780635f8f6f5d1461012f578063c3c360bb1461014d578063d2325bbe14610169578063f70fda401461018557610088565b80630e3f6b071461008d57806343a13ea0146100a95780634e266aea146100dd5780635d1903b314610111575b600080fd5b6100a760048036038101906100a29190610c2b565b6101a1565b005b6100c360048036038101906100be9190610c02565b6102ab565b6040516100d4959493929190610ef2565b60405180910390f35b6100f760048036038101906100f29190610c02565b610411565b604051610108959493929190610e4c565b60405180910390f35b6101196105ff565b6040516101269190610dbc565b60405180910390f35b610137610605565b6040516101449190610dbc565b60405180910390f35b61016760048036038101906101629190610c2b565b61060b565b005b610183600480360381019061017e9190610c2b565b610717565b005b61019f600480360381019061019a9190610b96565b6108ea565b005b3373ffffffffffffffffffffffffffffffffffffffff1660008084815260200190815260200160002060040160009054906101000a900473ffffffffffffffffffffffffffffffffffffffff1673ffffffffffffffffffffffffffffffffffffffff1614610244576040517f08c379a000000000000000000000000000000000000000000000000000000000815260040161023b90610d7c565b60405180910390fd5b80600080848152602001908152602001600020600301908051906020019061026d929190610a76565b507fdc280875b120650ffe3edf5f724f07fd086361a32c2a387fe34b495f5679e77d828260405161029f929190610dd7565b60405180910390a15050565b60016020528060005260406000206000915090508060000154908060010154908060020180546102da9061104e565b80601f01602080910402602001604051908101604052809291908181526020018280546103069061104e565b80156103535780601f1061032857610100808354040283529160200191610353565b820191906000526020600020905b81548152906001019060200180831161033657829003601f168201915b5050505050908060030180546103689061104e565b80601f01602080910402602001604051908101604052809291908181526020018280546103949061104e565b80156103e15780601f106103b6576101008083540402835291602001916103e1565b820191906000526020600020905b8154815290600101906020018083116103c457829003601f168201915b5050505050908060040160009054906101000a900473ffffffffffffffffffffffffffffffffffffffff16905085565b600060205280600052604060002060009150905080600001549080600101805461043a9061104e565b80601f01602080910402602001604051908101604052809291908181526020018280546104669061104e565b80156104b35780601f10610488576101008083540402835291602001916104b3565b820191906000526020600020905b81548152906001019060200180831161049657829003601f168201915b5050505050908060020180546104c89061104e565b80601f01602080910402602001604051908101604052809291908181526020018280546104f49061104e565b80156105415780601f1061051657610100808354040283529160200191610541565b820191906000526020600020905b81548152906001019060200180831161052457829003601f168201915b5050505050908060030180546105569061104e565b80601f01602080910402602001604051908101604052809291908181526020018280546105829061104e565b80156105cf5780601f106105a4576101008083540402835291602001916105cf565b820191906000526020600020905b8154815290600101906020018083116105b257829003601f168201915b5050505050908060040160009054906101000a900473ffffffffffffffffffffffffffffffffffffffff16905085565b60035481565b60025481565b3373ffffffffffffffffffffffffffffffffffffffff166001600084815260200190815260200160002060040160009054906101000a900473ffffffffffffffffffffffffffffffffffffffff1673ffffffffffffffffffffffffffffffffffffffff16146106af576040517f08c379a00000000000000000000000000000000000000000000000000000000081526004016106a690610d7c565b60405180910390fd5b806001600084815260200190815260200160002060030190805190602001906106d9929190610a76565b507fdc280875b120650ffe3edf5f724f07fd086361a32c2a387fe34b495f5679e77d828260405161070b929190610dd7565b60405180910390a15050565b6000806000848152602001908152602001600020600001541415610770576040517f08c379a000000000000000000000000000000000000000000000000000000000815260040161076790610d9c565b60405180910390fd5b6003600081548092919061078390611080565b91905055506040518060a0016040528060035481526020018381526020018281526020016040518060400160405280600d81526020017f496e2050726f64756374696f6e0000000000000000000000000000000000000081525081526020013373ffffffffffffffffffffffffffffffffffffffff1681525060016000600354815260200190815260200160002060008201518160000155602082015181600101556040820151816002019080519060200190610841929190610a76565b50606082015181600301908051906020019061085e929190610a76565b5060808201518160040160006101000a81548173ffffffffffffffffffffffffffffffffffffffff021916908373ffffffffffffffffffffffffffffffffffffffff1602179055509050507f6ebf9f8ad7c581f5efe4877102b6a0afb1d89cf3c450146cf372a85caea41e3060035483836040516108de93929190610eb4565b60405180910390a15050565b600260008154809291906108fd90611080565b91905055506040518060a0016040528060025481526020018381526020018281526020016040518060400160405280600781526020017f50656e64696e670000000000000000000000000000000000000000000000000081525081526020013373ffffffffffffffffffffffffffffffffffffffff1681525060008060025481526020019081526020016000206000820151816000015560208201518160010190805190602001906109b0929190610a76565b5060408201518160020190805190602001906109cd929190610a76565b5060608201518160030190805190602001906109ea929190610a76565b5060808201518160040160006101000a81548173ffffffffffffffffffffffffffffffffffffffff021916908373ffffffffffffffffffffffffffffffffffffffff1602179055509050507fb9820d37b81d9701770767ae5302bfaff15a7f2ed567651131572c1e6af9325c6002548383604051610a6a93929190610e07565b60405180910390a15050565b828054610a829061104e565b90600052602060002090601f016020900481019282610aa45760008555610aeb565b82601f10610abd57805160ff1916838001178555610aeb565b82800160010185558215610aeb579182015b82811115610aea578251825591602001919060010190610acf565b5b509050610af89190610afc565b5090565b5b80821115610b15576000816000905550600101610afd565b5090565b6000610b2c610b2784610f84565b610f53565b905082815260208101848484011115610b4457600080fd5b610b4f84828561100c565b509392505050565b600082601f830112610b6857600080fd5b8135610b78848260208601610b19565b91505092915050565b600081359050610b9081611167565b92915050565b60008060408385031215610ba957600080fd5b600083013567ffffffffffffffff811115610bc357600080fd5b610bcf85828601610b57565b925050602083013567ffffffffffffffff811115610bec57600080fd5b610bf885828601610b57565b9150509250929050565b600060208284031215610c1457600080fd5b6000610c2284828501610b81565b91505092915050565b60008060408385031215610c3e57600080fd5b6000610c4c85828601610b81565b925050602083013567ffffffffffffffff811115610c6957600080fd5b610c7585828601610b57565b9150509250929050565b610c8881610fd0565b82525050565b6000610c9982610fb4565b610ca38185610fbf565b9350610cb381856020860161101b565b610cbc81611156565b840191505092915050565b6000610cd4602583610fbf565b91507f4f6e6c7920746865206f776e65722063616e207570646174652074686520737460008301527f617475732e0000000000000000000000000000000000000000000000000000006020830152604082019050919050565b6000610d3a601a83610fbf565b91507f4d696c6b20626174636820646f6573206e6f742065786973742e0000000000006000830152602082019050919050565b610d7681611002565b82525050565b60006020820190508181036000830152610d9581610cc7565b9050919050565b60006020820190508181036000830152610db581610d2d565b9050919050565b6000602082019050610dd16000830184610d6d565b92915050565b6000604082019050610dec6000830185610d6d565b8181036020830152610dfe8184610c8e565b90509392505050565b6000606082019050610e1c6000830186610d6d565b8181036020830152610e2e8185610c8e565b90508181036040830152610e428184610c8e565b9050949350505050565b600060a082019050610e616000830188610d6d565b8181036020830152610e738187610c8e565b90508181036040830152610e878186610c8e565b90508181036060830152610e9b8185610c8e565b9050610eaa6080830184610c7f565b9695505050505050565b6000606082019050610ec96000830186610d6d565b610ed66020830185610d6d565b8181036040830152610ee88184610c8e565b9050949350505050565b600060a082019050610f076000830188610d6d565b610f146020830187610d6d565b8181036040830152610f268186610c8e565b90508181036060830152610f3a8185610c8e565b9050610f496080830184610c7f565b9695505050505050565b6000604051905081810181811067ffffffffffffffff82111715610f7a57610f79611127565b5b8060405250919050565b600067ffffffffffffffff821115610f9f57610f9e611127565b5b601f19601f8301169050602081019050919050565b600081519050919050565b600082825260208201905092915050565b6000610fdb82610fe2565b9050919050565b600073ffffffffffffffffffffffffffffffffffffffff82169050919050565b6000819050919050565b82818337600083830152505050565b60005b8381101561103957808201518184015260208101905061101e565b83811115611048576000848401525b50505050565b6000600282049050600182168061106657607f821691505b6020821081141561107a576110796110f8565b5b50919050565b600061108b82611002565b91507fffffffffffffffffffffffffffffffffffffffffffffffffffffffffffffffff8214156110be576110bd6110c9565b5b600182019050919050565b7f4e487b7100000000000000000000000000000000000000000000000000000000600052601160045260246000fd5b7f4e487b7100000000000000000000000000000000000000000000000000000000600052602260045260246000fd5b7f4e487b7100000000000000000000000000000000000000000000000000000000600052604160045260246000fd5b6000601f19601f8301169050919050565b61117081611002565b811461117b57600080fd5b5056fea2646970667358221220b2c1d72d0a948064c230541599de199e85b3a1cd6a6c8da57e34e75f709df72864736f6c63430008000033",
  "immutableReferences": {},
  "source": "// SPDX-License-Identifier: MIT\r\npragma solidity ^0.8.0;\r\n\r\ncontract MilkSupplyChain {\r\n    struct MilkBatch {\r\n        uint id;\r\n        string batchCode;\r\n        string farmName;\r\n        string status; // e.g., \"Pending\", \"Approved\", \"Completed\"\r\n        address owner;\r\n    }\r\n\r\n    struct MilkBox {\r\n        uint id;\r\n        uint batchId;\r\n        string serialNumber;\r\n        string status; // e.g., \"In Production\", \"In Transit\", \"Sold\"\r\n        address owner;\r\n    }\r\n\r\n    mapping(uint => MilkBatch) public milkBatches;\r\n    mapping(uint => MilkBox) public milkBoxes;\r\n\r\n    uint public milkBatchCount;\r\n    uint public milkBoxCount;\r\n\r\n    event MilkBatchCreated(uint id, string batchCode, string farmName);\r\n    event MilkBoxCreated(uint id, uint batchId, string serialNumber);\r\n    event StatusUpdated(uint id, string newStatus);\r\n\r\n    // Hm to l sa\r\n    function createMilkBatch(string memory _batchCode, string memory _farmName) public {\r\n        milkBatchCount++;\r\n        milkBatches[milkBatchCount] = MilkBatch(milkBatchCount, _batchCode, _farmName, \"Pending\", msg.sender);\r\n        emit MilkBatchCreated(milkBatchCount, _batchCode, _farmName);\r\n    }\r\n\r\n    // Hm to hp sa\r\n    function createMilkBox(uint _batchId, string memory _serialNumber) public {\r\n        require(milkBatches[_batchId].id != 0, \"Milk batch does not exist.\");\r\n        milkBoxCount++;\r\n        milkBoxes[milkBoxCount] = MilkBox(milkBoxCount, _batchId, _serialNumber, \"In Production\", msg.sender);\r\n        emit MilkBoxCreated(milkBoxCount, _batchId, _serialNumber);\r\n    }\r\n\r\n    // Hm cp nht trng thi l sa\r\n    function updateMilkBatchStatus(uint _id, string memory _newStatus) public {\r\n        require(milkBatches[_id].owner == msg.sender, \"Only the owner can update the status.\");\r\n        milkBatches[_id].status = _newStatus;\r\n        emit StatusUpdated(_id, _newStatus);\r\n    }\r\n\r\n    // Hm cp nht trng thi hp sa\r\n    function updateMilkBoxStatus(uint _id, string memory _newStatus) public {\r\n        require(milkBoxes[_id].owner == msg.sender, \"Only the owner can update the status.\");\r\n        milkBoxes[_id].status = _newStatus;\r\n        emit StatusUpdated(_id, _newStatus);\r\n    }\r\n}",
  "sourcePath": "D:\\MilkSupplyChain\\contracts\\MilkSupplyChain.sol",
  "compiler": {
    "name": "solc",
    "version": "0.8.0+commit.c7dfd78e.Emscripten.clang"
  },
  "schemaVersion": "3.4.16",
  "updatedAt": "2025-03-02T09:15:49.355Z",
  "networkType": "ethereum",
  "devdoc": {
    "kind": "dev",
    "methods": {},
    "version": 1
  },
  "userdoc": {
    "kind": "user",
    "methods": {},
    "version": 1
  }
}